:020000040800F2
:1000000000000120C5020008CB020008CF02000852
:1000100041030008450300088D03000800000000AC
:10002000000000000000000000000000111E000899
:10003000D903000800000000B11E0008151F0008C9
:10004000411000084110000841100008411000084C
:1000500041100008411000080D1600082D16000878
:100060004D1600086D1600088D1600084110000896
:10007000411000084110000841100008411000081C
:100080004110000841100008411000080000000065
:10009000000000000000000000000000AD16000895
:1000A00041100008411000084110000841100008EC
:1000B00041100008411000084110000841100008DC
:1000C00041100008411000084110000841100008CC
:1000D00041100008991100084110000800000000BC
:1000E000D51600084110000841100008000000006B
:1000F00000000000000000000000000041100008A7
:1001000000000000411000084110000841100008E4
:1001100000000000000000000000000000000000DF
:10012000411000084110000841100008411000086B
:100130004110000800000000000000000000000066
:100140000000000000000000000000004110000856
:10015000411000084110000841100008411000083B
:1001600041100008411000080000000000000000DD
:10017000000000000000000000000000000000007F
:100180000000000041100008000000000000000016
:100190004110000800B583B000F0B6FE384B394A74
:1001A0001360394A1360394900E02146384B9942BF
:1001B0000BD20A684B6801F10C0488689842F4D9A4
:1001C0001168196004330432F8E72E4B1A68314B7A
:1001D0009A4200D0FEE72C4B1A682F4B9A42F9D175
:1001E000274B2E4A13602E4A13602E4B05E0002049
:1001F000106004329342FAD80B462B4A934204D241
:10020000194651F8082B5B68F4E7244B1B6813B9B7
:10021000234B1B6803B1FEE701F0ACFB694601A864
:1002200000F004FE214C224BE41AA4100025AC423D
:1002300014DC204C204BE41AA4100025AC4213DC43
:100240000099019801F0E2FB05461C4C1C4BE41A96
:10025000A410002C0EDC284600F0BAFD144B53F815
:10026000253098470135E2E7134B53F8253098477E
:100270000135E3E7013C124B53F824309847E8E797
:10028000BABADECA0000002084000020F003000893
:1002900008040008785634123254769888000020FA
:1002A000182A002008040008180400081804000890
:1002B00018040008180400081804000818040008AE
:1002C0001804000808B5FFF765FF00BEFEE71EF042
:1002D000040F0CBFEFF30880EFF309807146414A29
:1002E00010472DE9F04182B004468846124B5E6B00
:1002F0009F6B9D6A1B6B13F0020F03D00E4BDB6AE2
:10030000002B0CDB0D4800F0A3FDCDF800803B4630
:1003100032462946204600F009FE00BEFEE74BF6B5
:10032000AB6100F07DFE0028ECD0034B4FF00042A3
:10033000DA6202B0BDE8F08100ED00E08437000829
:1003400000BEFEE71EF0040F0CBFEFF30880EFF3D2
:1003500009807146244A10472DE9F04182B00446D5
:100360008846084B5E6B9F6B9D6A074800F070FDE6
:10037000CDF800803B4632462946204600F0D6FDA7
:1003800000BEFEE700ED00E0943700081EF0040F09
:100390000CBFEFF30880EFF309807146134A104752
:1003A0002DE9F04182B004468846084B5E6B9F6B96
:1003B0009D6A074800F04CFDCDF800803B46324670
:1003C0002946204600F0B2FD00BEFEE700ED00E049
:1003D000A037000800BEFEE700BEFEE700BEFEE755
:1003E00070470000E302000859030008A103000859
:1003F0005838000800000020880000205838000805
:100400000000001000000010880000201C2A0020BE
:080410000000001000000010C4
:1004200010B504460E4B18784FF47A73B3FBF0F313
:100430000C4A1068B0FBF3F000F09CF868B90F2C80
:1004400001D901200AE0002221464FF0FF3000F0E0
:100450004BF8054B1C60002000E0012010BD00BFE0
:1004600004000020140000200800002008B50B4BF9
:100470001A6842F400721A601A6842F480621A60C4
:100480001A6842F480721A60032000F00FF80F20FF
:10049000FFF7C6FF01F030FB002008BD003C024022
:1004A000014B1868704700BF102A002010B50446A1
:1004B000C31E042B0FD80A4AD36823F4E0631B043D
:1004C0001B0C240204F4E064234343F0BF6343F4B1
:1004D0000033D36010BD9021024800F0AFFCEAE782
:1004E00000ED00E0C435000870B505460C46164620
:1004F0000F2A25D80F2C28D81B4BDB68C3F3022307
:10050000C3F10702042A28BF0422191D062921D994
:10051000033B4FF0FF3101FA02F224EA02049C404F
:1005200001FA03F326EA03063443002D14DB240109
:10053000E4B205F1604505F5614585F8004370BDFD
:10054000A8210A4800F07AFCD4E7A921074800F066
:1005500075FCD1E70023DCE705F00F052401E4B2C8
:10056000034B5C55EBE700BF00ED00E0C43500082D
:1005700014ED00E00138B0F1807F0AD2064B5860DC
:10058000064AF02182F823100020986007221A60A2
:1005900070470120704700BF10E000E000ED00E070
:1005A00010B50446042800D038B9042C0BD0094AF1
:1005B000136823F00403136010BD40F2D111064804
:1005C00000F03CFCF1E7034A136843F004031360B6
:1005D000F2E700BF10E000E0C4350008002800F09A
:1005E0006A8270B582B0044603680F2B39D823683D
:1005F00013F0010F4DD063682BB1B3F5803F02D0EB
:10060000B3F5A02F32D1A54B9B6803F00C03042B4C
:1006100036D0A24B9B6803F00C03082B2BD06368E9
:10062000B3F5803F5FD0B3F5A02F62D09B4B1A6823
:1006300022F480321A601A6822F480221A606368F9
:10064000002B60D0FFF72CFF0546944B1B6813F47A
:10065000003F1ED1FFF724FF401B6428F5D903207B
:100660002EE2E6218E4800F0E9FBC0E7EB218C4842
:1006700000F0E4FBC7E7894B5B6813F4800FCED032
:10068000864B1B6813F4003F03D06368002B00F017
:100690001482236813F0020F67D0E368012B41D85E
:1006A00023691F2B44D87D4B9B6813F00C0F4AD055
:1006B0007A4B9B6803F00C03082B3FD0E368002BB8
:1006C00077D0784B01221A60FFF7EAFE0546734B9C
:1006D0001B6813F0020F63D1FFF7E2FE401B0228F4
:1006E000F5D90320ECE16D4A136843F480331360BD
:1006F000A5E76A4B1A6842F480221A601A6842F42D
:1007000080321A609BE7FFF7CBFE0546634B1B6800
:1007100013F4003FBDD0FFF7C3FE401B6428F5D99A
:100720000320CDE140F21D115D4800F087FBB7E7E3
:100730004FF48F715A4800F081FBB4E7574B5B6868
:1007400013F4800FBAD1554B1B6813F0020F04D07D
:10075000E368012B01D00120B2E1504A136823F075
:10076000F803216943EAC1031360236813F0080FFB
:1007700049D06369012B2ED8636993B34A4B012298
:100780001A60FFF78DFE0546444B5B6F13F0020FB6
:1007900039D1FFF785FE401B0228F5D903208FE1F0
:1007A0003E4A136823F0F803216943EAC10313604A
:1007B000DBE73C4B00221A60FFF772FE0546374B21
:1007C0001B6813F0020FD0D0FFF76AFE401B02280F
:1007D000F5D9032074E14FF4AF71314800F02EFBDE
:1007E000CAE7314B00221A60FFF75AFE05462B4B31
:1007F0005B6F13F0020F06D0FFF752FE401B02287A
:10080000F5D903205CE1236813F0040F00F0878022
:10081000A368012B01D9052B38D1204B1B6C13F099
:10082000805F39D1002301931C4B1A6C42F0805237
:100830001A641B6C03F080530193019B01251B4B31
:100840001B6813F4807F33D0A368012B44D0052BA1
:1008500048D0124B1A6F22F001021A671A6F22F069
:1008600004021A67A368002B46D0FFF719FE06465C
:100870000A4B1B6F13F0020F4FD1FFF711FE801BC5
:1008800041F288339842F3D9032019E14FF4C5713E
:10089000034800F0D3FAC0E70025D0E70038024053
:1008A000F835000800004742800E474200700040C3
:1008B000864A136843F480731360FFF7F1FD064620
:1008C000824B1B6813F4807FBED1FFF7E9FD801BCC
:1008D0000228F5D90320F3E07D4A136F43F00103AA
:1008E0001367BFE77A4B1A6F42F004021A671A6F58
:1008F00042F001021A67B5E7FFF7D2FD0646744BD6
:100900001B6F13F0020F08D0FFF7CAFD801B41F2E6
:1009100088339842F3D90320D2E0002D3CD1A3695B
:10092000022B3FD8A369002B00F0C980684A926867
:1009300002F00C02082A00F09180022B7AD1E369C0
:1009400013B1B3F5800F33D1236A023B3D2B35D869
:10095000636A323BB3F5BF7F36D8A36A022B05D05A
:10096000042B03D0062B01D0082B33D1E36A023BC2
:100970000D2B35D8574B00221A60FFF791FD054625
:10098000534B1B6813F0007F30D0FFF789FD401BED
:100990000228F5D9032093E04D4A136C23F08053CD
:1009A0001364BCE740F2CD114B4800F047FAB9E7B9
:1009B0004FF4EB71484800F041FAC5E740F2D71117
:1009C000454800F03BFAC3E74FF4EC71424800F0B1
:1009D00035FAC2E740F2D9113F4800F02FFAC5E7D7
:1009E0004FF4ED713C4800F029FAC3E7E369226A4D
:1009F0001343626A43EA8213A26A5208013A43EA45
:100A00000243E26A43EA0263314A5360314B0122F6
:100A10001A60FFF745FD04462D4B1B6813F0007F5D
:100A200006D1FFF73DFD001B0228F5D9032047E062
:100A3000002045E0274B00221A60FFF731FD0446F5
:100A4000234B1B6813F0007F06D0FFF729FD001B26
:100A50000228F5D9032033E0002031E0012B31D00A
:100A60001B4B5B6803F48001E269914201D00120D5
:100A700026E003F03F02216A8A4201D001201FE0F4
:100A8000616A47F6C0721A40B2EB811F01D00120A3
:100A900016E003F44031A26A5208013AB1EB024F6A
:100AA00001D001200CE003F07063E26AB3EB026F47
:100AB0000AD0012004E001207047012000E000205E
:100AC00002B070BD0120FBE70020F9E70070004094
:100AD0000038024060004742F8350008304B9B6800
:100AE00003F00C03082B58D12DE9F04B2C4B5A681E
:100AF00002F03F025B6813F4800F2BD0284B5B6839
:100B0000C3F388131E4600275C010025E41A65EB39
:100B10000705A90141EA9461A001001B61EB0501F1
:100B2000CB0043EA5073C400A01943EB07018B02CA
:100B300043EA9053840220461946002301F038FF0F
:100B4000174B5B68C3F3014301335B00B0FBF3F069
:100B5000BDE8F08B124B5B68C3F388131E46002779
:100B60005C010025E41A65EB0705A90141EA9461DF
:100B7000A001001B61EB0501CB0043EA5073C400E8
:100B8000A01943EB07018B0243EA905384022046ED
:100B90001946002301F00CFFD2E70248704700BF5E
:100BA000003802400024F400002800F0FA8070B5FC
:100BB00004460D460368013B0E2B11D8072D15D8AE
:100BC0007A4B1B6803F00703AB4215D2EBB2774AAE
:100BD0001370136803F00703AB420DD0012070BD02
:100BE00040F25A21724800F029F9E7E740F25B2110
:100BF0006F4800F023F9E3E7236813F0020F29D0D0
:100C000013F0040F04D06B4A936843F4E0539360ED
:100C1000236813F0080F04D0664A936843F46043D6
:100C20009360A3687BB1802B0DD0902B0BD0A02BB1
:100C300009D0B02B07D0C02B05D0D02B03D0E02B90
:100C400001D0F02B33D15B4A936823F0F003A16805
:100C50000B439360236813F0010F42D06368032BAA
:100C60002BD86368012B2ED09A1E012A32D9514A03
:100C7000126812F0020F00F096804E498A6822F046
:100C8000030213438B60FFF70BFC0646494B9B683E
:100C900003F00C036268B3EB820F22D0FFF700FC75
:100CA000801B41F288339842F0D9032097E740F245
:100CB0007E213F4800F0C2F8C5E740F285213C485C
:100CC00000F0BCF8CDE73B4A126812F4003FD4D1E3
:100CD000012084E7374A126812F0007FCDD101204D
:100CE0007DE7324B1B6803F00703AB4209D9EAB238
:100CF0002E4B1A701B6803F00703AB4201D0012092
:100D00006DE7236813F0040F14D0E3685BB1B3F50B
:100D1000805F08D0B3F5A05F05D0B3F5C05F02D007
:100D2000B3F5E05F31D1234A936823F4E053E168DF
:100D30000B439360236813F0080F15D023695BB150
:100D4000B3F5805F08D0B3F5A05F05D0B3F5C05F01
:100D500002D0B3F5E05F1ED1164A936823F46043D6
:100D6000216943EAC1039360FFF7B8FE114B9B680A
:100D7000C3F30313104AD35CD840104B1860104BD8
:100D80001868FFF74DFB002029E740F2C32108480F
:100D900000F054F8C7E740F2CA21054800F04EF8C9
:100DA000DAE701207047012019E700BF003C02404C
:100DB000F835000800380240B03700081400002061
:100DC00008000020014B1868704700BF1400002085
:100DD000FEE7000008B5034800F052F80120FFF7D5
:100DE000F7FF00BF2836000808B503460C4A126812
:100DF0005AB10B4A1068033323F003030344094A32
:100E0000934206D8064A136008BD054A0649116098
:100E1000EFE701F04DFF0C2303604FF0FF30F3E7E5
:100E20008C00002000FC00201C2A0020012303600D
:100E3000014B0B60704700BF0C00002008B50A464C
:100E40000146024800F004F8FFF7C4FF3C360008F2
:100E50000FB400B583B004AB53F8042B0193802189
:100E6000064801F073FF002803DD0146034800F047
:100E700047F803B05DF804EB04B07047940000201D
:100E800010B5044601F02DFF0146204600F038F869
:100E90000121024800F034F810BD00BF00370008FF
:100EA0002DE9F04385B004460F4643560BB10E467C
:100EB0001EE0042528462146ABBE0446384605B050
:100EC000BDE8F08314F9011B04AA1A4402F8101CAF
:100ED0000133AB42F6D304AA1344002203F8102CCA
:100EE0004FF00408E94640464946ABBE8046761BB3
:100EF000002EE3D03546102E28BF10250023E8E74A
:100F000008B5FFF7CDFF08BD08B500F09BF8054B0D
:100F1000054A9A60D3F8882042F47002C3F888200A
:100F200008BD00BF00ED00E000000008F8B5044671
:100F30000D4617461E462748FFF78AFF21682648B8
:100F4000FFF786FF61682548FFF782FFA168244804
:100F5000FFF77EFFE1682348FFF77AFF2169224807
:100F6000FFF776FF61692148FFF772FFA16920480A
:100F7000FFF76EFFE1691F48FFF76AFF1E48FFF7A2
:100F800067FF29461D48FFF763FF1D4CE16A1D48B6
:100F9000FFF75EFF216B1C48FFF75AFFE16B1B4810
:100FA000FFF756FF15F0800F0AD115F4004F0CD152
:100FB0001748FFF74DFF06991648FFF749FFF8BDA0
:100FC00039461548FFF744FFEFE731461348FFF76E
:100FD0003FFFEDE7683600087836000888360008DD
:100FE00098360008A8360008B8360008C836000849
:100FF000D8360008E8360008F8360008043700083C
:1010000000ED00E0143700082437000834370008EA
:10101000643700086C37000844370008543700086C
:1010200083691A888A4201D0002070470268033A17
:10103000012A03D8023383610120704700207047E2
:10104000FEE70000044BD3F8882042F47002C3F896
:101050008820024A9A60704700ED00E00080000896
:10106000224B9B6803F00C03042B14D0082B16D0E2
:101070001BB11F4B1F4A1A6002E01D4B1D4A1A602C
:101080001A4B9B68C3F303131B4AD15C184A1368BD
:10109000CB4013607047164B164A1A60F0E7134BAB
:1010A0005A685B6803F03F0312F4800F13D0114AB3
:1010B000B2FBF3F20D4B5B68C3F3881303FB02F33F
:1010C0000A4A5268C2F3014201325200B3FBF2F302
:1010D000074A1360D4E7074AB2FBF3F2034B5B689D
:1010E000C3F3881303FB02F3EAE700BF00380240B2
:1010F000140000200024F400B0370008104B40F228
:1011000041329A601A6922F480521A611A6922F4F3
:1011100000521A61DA6822F48052DA60DA6822F446
:101120000042DA605A6942F400625A61DA6842F0B9
:101130000802DA60DA6842F00402DA60704700BF41
:1011400000100140034BDA6842F02002DA60586870
:10115000C0B2704700100140024AD36843F4005304
:10116000D360704700100140002208E006494B6040
:10117000054B1B6813F0800FFAD00132D2B2835CAA
:10118000002BF3D1704700BF00100140014B1860E5
:10119000704700BF1401002008B5024B1B6803B163
:1011A000984708BD14010020074A136843F0010363
:1011B0001360064B1A6822F001021A601A6822F0C6
:1011C00002021A60704700BF00380240083802402F
:1011D000072844D8DFE800F004240C2C14341C3C0D
:1011E0001F480368012202FA01F1194301607047A8
:1011F0001C480368012202FA01F11943016070479B
:1012000019480368012202FA01F11943016070478D
:1012100016480368012202FA01F119430160704780
:1012200013480368012202FA01F119430160704773
:1012300010480368012202FA01F119430160704766
:101240000D480368012202FA01F119430160704759
:101250000A480368012202FA01F11943016070474C
:1012600030380240343802404038024044380240AE
:10127000503802405438024060380240643802401E
:1012800000F01F02400901239340024A42F8203037
:10129000704700BF00E100E010B4012813D020B176
:1012A00002281ED05DF8044B7047154B18684900A2
:1012B00003248C4020EA04001860186802FA01F147
:1012C00001431960EEE70F4B1868490003248C4076
:1012D00020EA04001860186802FA01F1014319605D
:1012E000E0E7094B1868490003248C4020EA040019
:1012F0001860186802FA01F101431960D2E700BFD3
:1013000000000240000402400008024010B401281E
:1013100011D020B102281AD05DF8044B7047124B4F
:10132000586801248C4020EA0400586058688A40BC
:1013300002435A60F0E70D4B586801248C4020EAC4
:101340000400586058688A4002435A60E4E7084B3A
:10135000586801248C4020EA0400586058688A408C
:1013600002435A60D8E700BF000002400004024078
:101370000008024002BB01280CD010B1022812D094
:1013800070471E484369012202FA01F123EA010174
:10139000416170471A484369012202FA01F123EAC8
:1013A00001014161704717484369012202FA01F1C6
:1013B00023EA010141617047012A00D070470128EA
:1013C0000BD010B1022810D070470C48436901229D
:1013D00002FA01F11943416170470948436901224A
:1013E00002FA01F11943416170470648436901223D
:1013F00002FA01F119434161E0E700BF0000024039
:10140000000402400008024010B4072931D8012826
:1014100013D020B102281ED05DF8044B70472D4B2D
:10142000186A89000F248C4020EA04001862186AA8
:1014300002FA01F101431962EEE7274B186A8900AD
:101440000F248C4020EA04001862186A02FA01F1A5
:1014500001431962E0E7214B186A89000F248C4090
:1014600020EA04001862186A02FA01F101431962C5
:10147000D2E70839C9B201281ED078B10228CBD1F1
:10148000164B586A89000F248C4020EA04005862E9
:10149000586A02FA01F101435962BDE70D4B586ADF
:1014A00089000F248C4020EA04005862586A02FA2E
:1014B00001F101435962AFE7074B586A89000F24D5
:1014C0008C4020EA04005862586A02FA01F1014394
:1014D0005962A1E7000002400004024000080240F7
:1014E00003490B68012202FA00F003430B607047C6
:1014F000003C014001290FD011B1032918D07047D9
:10150000114B9968012202FA00F001439960DA68F0
:1015100022EA0000D86070470B4B9968012202FA5A
:1015200000F021EA00019960DA681043D860704742
:10153000054A9168012303FA00F001439160D368E2
:101540001843D060704700BF003C014010B404282D
:101550000FD9431FDBB2032B1AD9A0F10903DBB269
:10156000022B23D9A0F10C03DBB2032B2CD900BF33
:101570000BE01D4B1A6884000F20A04022EA0000F7
:1015800018601A6842EA011119605DF8044B70474F
:10159000164B1A68053884000F20A04022EA00028A
:1015A0001A601A6842EA01111960EEE7104B1A68D6
:1015B000093884000F20A04022EA00021A601A684D
:1015C00042EA01111960E0E70A4B1A680C38800002
:1015D0000F2404FA00F022EA000018601A6842EAB8
:1015E00001111960D1E700BF083801400C380140F3
:1015F0001038014014380140024B43F82010024BD0
:10160000187070471C0100201801002008B5054B18
:101610001B6803B19847044A536943F001035361BF
:1016200008BD00BF1C010020003C014008B5054B6F
:101630005B6803B19847044A536943F0010353615F
:1016400008BD00BF1C010020003C014008B5054B4F
:101650009B6803B19847044A536943F001035361FF
:1016600008BD00BF1C010020003C014008B5054B2F
:10167000DB6803B19847044A536943F0010353619F
:1016800008BD00BF1C010020003C014008B5054B0F
:101690001B6903B19847044A536943F0010353613E
:1016A00008BD00BF1C010020003C014008B5064BEE
:1016B0001A78064B53F8223003B19847044A53690D
:1016C00043F00103536108BD180100201C010020F4
:1016D000003C014008B5064B1A78064B53F82230FF
:1016E00003B19847044A536943F00103536108BDAD
:1016F000180100201C010020003C0140044B5868E8
:10170000044A13780449C85401331370704700BF6A
:1017100000100140590100205C010020074B1B789C
:10172000013B5BB204E0064A0021D154013B5BB2AD
:10173000002BF8DA014B00221A7070475901002083
:101740005C010020084B1B784F2B05D0074B002273
:101750001A70064B18787047034B5B784B2BF5D10A
:10176000024B01221A70F4E75C01002058010020AE
:1017700038B50546FFF7E6FC1848FFF707FD18489F
:10178000FFF7F2FCC82001F025F8FFF7DBFF154C4E
:101790002070FFF7C3FF2378012B07D0114B0022E5
:1017A0001A70FFF7BBFF0F4B187838BD0E48FFF7D4
:1017B000DBFC2846FFF7D8FC0C48FFF7D5FC4FF4BC
:1017C000967001F007F8FFF7BDFF2070012803D0E5
:1017D000044B00221A70E4E700BFE2E7FD160008A0
:1017E000E037000858010020E8370008F437000807
:1017F00010B5002304E02F4A0021D1540133DBB29D
:10180000312BF8D9FFF79EFC2B48FFF7BFFC2B4884
:10181000FFF7AAFC4B2000F0DDFFFFF793FF284CF9
:101820002070FFF77BFF2378012B3CD12548FFF781
:101830009BFC4B2000F0CEFFFFF784FF2070FFF7EA
:101840006DFF2378012B30D11F48FFF78DFC9620C8
:1018500000F0C0FF1D4B1B7A302B28D1FFF75EFF35
:101860001B48FFF781FC4FF4967000F0B3FF174B55
:101870005B78532B14D00024114B1C70FFF74EFFE4
:10188000204610BD1149C85C0A4988540132D2B2C1
:101890000133DBB20F4909789942F3D8054CEDE7E3
:1018A00008230022F6E70024EAE70024E8E7002402
:1018B000E6E700BF90010020FD160008E0370008B1
:1018C00058010020C0370008C83700085C0100201C
:1018D000D43700085901002070B594B00024019459
:1018E000214B1A6C42F080521A641B6C03F0805337
:1018F0000193019B02941D4B1A6842F440421A6006
:101900001B6803F440430293029B012308934FF4A6
:10191000803309934FF480030F93102310934FF4F7
:10192000A8731193042612960723139302250E958C
:1019300008A8FEF753FE0F230393049505944FF474
:10194000805306930794294603A8FFF72DF9FFF764
:1019500039FA074BA3FB00308009FEF70BFE304637
:10196000FEF71EFE14B070BD00380240007000404B
:10197000D34D621008B5FEF779FDFFF7ADFFFFF715
:101980006FFB08BD08B508E00748FFF7F1FE002827
:10199000FAD04FF4967000F01DFF002000F08CFF8D
:1019A0000148FFF7E5FEF2E7FC37000808B5FFF74E
:1019B0001FFF0378542B02D0542B09D0FEE7427945
:1019C0004E2AF9D1012205210020FFF7D3FCF5E7CB
:1019D0004379462BF2D1002205211046FFF7CAFCBD
:1019E000ECE7000008B5074B186800F07BFD38B144
:1019F000054B4FF080521A60BFF34F8FBFF36F8FCC
:101A000008BD00BFC401002004ED00E000B583B0B4
:101A1000FFF7CAFBFFF772FB00210846FFF7D8FB70
:101A200004210620FFF7D4FB00210846FFF78EFDB6
:101A30000020FFF755FD01210020FFF75BFD00228C
:101A400011461046FFF728FC002209211046FFF737
:101A50005DFC00220A211046FFF758FC02220921F2
:101A60000020FFF719FC02220A210020FFF714FCD6
:101A7000072209210020FFF7C7FC07220A210020C6
:101A8000FFF7C2FC012205210020FFF705FC1349E6
:101A90000020FFF7B1FDFFF75FFB0620FFF7F0FB2B
:101AA0002520FFF7EDFB0E4B01930123009300234C
:101AB00080220C490C4800F0E3FC0C4B01930223FC
:101AC0000093002380220A490A4800F0D9FC00F064
:101AD0005FFD002003B05DF804FB00BFE5190008BE
:101AE000C40100200438000885190008C80100203E
:101AF0000C380008AD19000870470000134A12F0B6
:101B0000070F1FD0D11D21F00701C1F51C53103361
:101B100013440A460E480260002141601344083B0A
:101B200023F007030B48036059601960991A51604C
:101B30001360094B1960094B1960094B4FF00042C3
:101B40001A60704742F21073E4E700BFD001002032
:101B5000F4280020CC010020E8280020E428002000
:101B6000E028002010B4134B1A6882421BD3596836
:101B70005C18844203D140680144596018464168AA
:101B80004418A24213D10C4C2468A2420DD05268D2
:101B9000114441601A6812680260984200D01860CF
:101BA0005DF8044B70471346DEE70460F5E702601A
:101BB000F3E700BFF4280020CC01002038B504462C
:101BC00000F028FD414B1B68EBB1414B1B681C42E8
:101BD0006ED1631E13F10A0F6CD804F1080313F0E1
:101BE000070F14D023F0070208329A4264D902F09A
:101BF00007035BB14FF0500383F31188BFF36F8F7E
:101C0000BFF34F8FFEE7FFF779FFDEE71346002BA8
:101C100054D0304A12689A4252D32F4A146801E0D5
:101C200022460C466168994202D221680029F7D108
:101C300026490968A14245D0156808352168116018
:101C40006268D21A102A10D9E01810F0070F08D0D5
:101C50004FF0500383F31188BFF36F8FBFF34F8FA3
:101C6000FEE742606360FFF77DFF626819490B6819
:101C70009B1A0B60194909688B4201D217490B6006
:101C8000134B1B681343636000232360144A1368DB
:101C90000133136000F036FD15F0070F14D04FF03C
:101CA000500383F31188BFF36F8FBFF34F8FFEE7AD
:101CB0000025EFE70025EDE70025EBE70025E9E744
:101CC0000025E7E70025E5E7284638BDCC010020E0
:101CD000E0280020E4280020F4280020E828002044
:101CE000EC280020002834D038B50446A0F10805BF
:101CF00050F8042C174909680A4208D14FF05003E4
:101D000083F31188BFF36F8FBFF34F8FFEE750F857
:101D1000080C40B14FF0500383F31188BFF36F8F6D
:101D2000BFF34F8FFEE722EA010244F8042C00F0D3
:101D300071FC54F8041C084A13680B4413602846CD
:101D4000FFF710FF054A13680133136000F0DAFC57
:101D500038BD7047E0280020E4280020F02800204B
:101D600082B0002301930D4B1B68B3F1FF3F08D0F5
:101D70004FF0500383F31188BFF36F8FBFF34F8F82
:101D8000FEE74FF0500383F31188BFF36F8FBFF36B
:101D90004F8F019B002BFCD002B070471800002031
:101DA00008480068006880F308884FF0000080F35E
:101DB000148862B661B6BFF34F8FBFF36F8F00DF39
:101DC00000BF000008ED00E0DFF80C00016841F4FE
:101DD000700101607047000088ED00E04FF08073F3
:101DE00040F8043C21F0010140F8081C054B40F884
:101DF0000C3C40F8202C6FF0020340F8243C44389F
:101E0000704700BF611D00080000000000000000D6
:101E1000074B19680868B0E8F04F80F30988BFF3F2
:101E20006F8F4FF0000080F311887047AFF3008090
:101E3000042900204FF0500383F31188BFF36F8F04
:101E4000BFF34F8F0A4A136801331360012B00D090
:101E50007047084B1B6813F0FF0FF9D04FF0500389
:101E600083F31188BFF36F8FBFF34F8FFEE700BF7F
:101E70001800002004ED00E0094B1B6843B94FF047
:101E8000500383F31188BFF36F8FBFF34F8FFEE7CB
:101E9000013B034A13600BB983F31188704700BFFD
:101EA00018000020000000000000000000000000FA
:101EB000EFF30980BFF36F8F154B1A681EF0100FF8
:101EC00008BF20ED108A20E9F04F10602DE90900CD
:101ED0004FF0500080F31188BFF34F8FBFF36F8F27
:101EE00000F09EFC4FF0000080F3118809BC1968D7
:101EF0000868B0E8F04F1EF0100F08BFB0EC108A71
:101F000080F30988BFF36F8F704700BFAFF3008085
:101F10000429002008B54FF0500383F31188BFF364
:101F20006F8FBFF34F8F00F07DFB18B1034B4FF065
:101F300080521A60002383F3118808BD04ED00E08D
:101F4000054B00221A6005490A60054A43F67F6185
:101F5000116007221A60704710E000E018E000E00E
:101F600014E000E03A4B1A683A4B9A420DD0384BD5
:101F70001A68394B9A4211D14FF0500383F31188FC
:101F8000BFF36F8FBFF34F8FFEE74FF0500383F324
:101F90001188BFF36F8FBFF34F8FFEE710B582B08C
:101FA0002E4B1A78D2B20192FF221A701B78DBB244
:101FB0008DF803309DF8033003F05003284A137066
:101FC000284B07221A6009E0264A1368013B136078
:101FD0009DF803305B00DBB28DF803309DF80330D1
:101FE00013F0800FF0D11F4B1B68032B08D04FF06C
:101FF000500383F31188BFF36F8FBFF34F8FFEE75A
:102000001B0203F4E063174A1360019BDBB2134A1F
:102010001370154B1A6842F470021A601A6842F085
:1020200070421A60FFF78CFF0024104B1C60FFF712
:10203000CBFE0F4A136843F040431360FFF7B0FE36
:1020400000F0EEFBFFF78CFE204602B010BD00BF93
:1020500000ED00E071C20F4170C20F4100E400E0EA
:10206000FC2800200029002020ED00E018000020BE
:1020700034EF00E0EFF305830F2B0FD9104A9B5C80
:10208000DBB2104A12789A4208D94FF0500383F31A
:102090001188BFF36F8FBFF34F8FFEE70A4B1B68AA
:1020A00003F4E063094A1268934208D94FF05003E1
:1020B00083F31188BFF36F8FBFF34F8FFEE7704735
:1020C000F0E300E0FC2800200CED00E000290020F7
:1020D00000F1080343604FF0FF328260C360036188
:1020E00000230360704700230361704743684B601F
:1020F0009A688A609A685160996008610368013340
:102100000360704730B40D68B5F1FF3F02D000F1B5
:10211000080202E0026904E01A4653681C68AC42F7
:10212000FAD953684B6099608A605160086103680E
:102130000133036030BC7047036942688168916075
:102140008268416851605A68824206D0002202616A
:102150001A68013A1A601868704782685A60F5E791
:1021600050B141690C4A91420FD1836A0B4A9342A4
:102170000DD073B1002070474FF0500383F31188E6
:10218000BFF36F8FBFF34F8FFEE700207047002033
:1021900070470120704700BFD8290020C0290020C7
:1021A000074B1B681B6833B1054B1B68DB681A685B
:1021B000044B1A607047034B4FF0FF321A607047B0
:1021C00008290020B429002010B50446006BFFF751
:1021D00089FD2046FFF786FD10BD2DE9F0478146B9
:1021E0000D4617469A46089EDDF824800A9C920008
:1021F000A521206B00F06DFD236B07F18042013AB1
:1022000003EB820727F00707002D39D00023092BA5
:1022100007D8E956E21882F83410EA560AB10133B9
:10222000F5E7002384F83D30042E00D90426E66249
:10223000A6640025E564201DFFF755FF04F1180092
:10224000FFF751FF2461C6F10506A661646204220E
:10225000294604F1500000F03CFD0122294604F11A
:10226000540000F036FD524649463846FFF7B6FDA9
:102270002060B8F1000F01D0C8F80040BDE8F08739
:10228000002384F83430CFE738B5002407E004EBAE
:10229000840293000E481844FFF71AFF0134042CFF
:1022A000F5D90C4D2846FFF713FF0B4C2046FFF7DE
:1022B0000FFF0A48FFF70CFF0948FFF709FF09481D
:1022C000FFF706FF084B1D60084B1C6038BD00BFC0
:1022D00010290020882900209C290020C0290020E6
:1022E000EC290020D8290020082900200C290020F2
:1022F00010B50446FFF79EFD1B4A136801331360B7
:102300001A4B1B685BB11A4B1B686BB9174B1B68E8
:10231000DA6AE36A9A4207D8144B1C6004E0134B54
:102320001C601368012B1BD0124A13680133136021
:102330002364E36A01229A400F49086802430A6055
:1023400003EB83039A00211D0C481044FFF7CEFED7
:10235000FFF792FD064B1B680BB1044B1B6810BDC9
:10236000FFF792FFE0E700BF742900200429002056
:10237000D429002080290020842900201029002051
:102380000F4B1B68D3B110B5FFF754FD0D4BDB6845
:10239000DC68201DFFF7D0FE0B4A1368013B136079
:1023A000074A1368013B1360FFF766FD2046FFF7FD
:1023B0000BFF034B1B68002BE6D110BD704700BF1D
:1023C00078290020EC2900207429002008B5FFF7A7
:1023D000D7FF044B4FF080521A60BFF34F8FBFF30B
:1023E0006F8FF4E704ED00E070B504460E461D4B18
:1023F0001D681D4B18680430FFF79EFE50B91A4B3C
:102400001B68DA6A012303FA02F218490B6823EA0F
:1024100002030B60B4F1FF3F13D02C44124B1B6836
:102420005C60A54216D8124B18680F4B196804312E
:10243000FFF768FE0F4B1B68A34212D90D4B1C60BF
:102440000FE0002EE9D0084B196804310A48FFF765
:102450004DFE06E0094B1868034B19680431FFF77D
:1024600051FE70BD002A002004290020842900208C
:1024700008290020B4290020D82900200C29002098
:102480002DE9F04385B007468846154699469000E9
:10249000FFF794FBF8B106465820FFF78FFB044680
:1024A000A8B10663D4B10023039302940D9B01935A
:1024B0000C9B00934B462A4641463846FFF78DFE5B
:1024C0002046FFF715FF012005B0BDE8F083304638
:1024D000FFF708FCE6E74FF0FF30F5E74FF0FF307D
:1024E000F2E70000F8B540B94FF0500383F31188CC
:1024F000BFF36F8FBFF34F8FFEE70546FFF7BAFDBF
:10250000EFF311874FF0500383F31188BFF36F8F00
:10251000BFF34F8F2846FFF723FE50B3164B1B68BF
:1025200003BBEA6A154B1B68DB6A9A4218D3012485
:10253000134B1C602E1D3046FFF7FEFDEA6A012397
:1025400093401049086803430B6031460E4B14203A
:1025500000FB0230FFF7CAFD87F311882046F8BD63
:102560000024E7E705F118010848FFF7BFFD002444
:10257000F2E70024F0E700BF7C29002004290020B6
:10258000042A00208429002010290020C0290020CE
:1025900000B583B0184B019300230093962217498E
:1025A0001748FFF76DFF012807D0B0F1FF3F19D0A2
:1025B000144B1B6803B05DF804FB4FF0500383F32A
:1025C0001188BFF36F8FBFF34F8F0F4B4FF0FF3268
:1025D0001A600E4B01221A600D4B00221A60FFF7A1
:1025E000C1FCE5E74FF0500383F31188BFF36F8F11
:1025F000BFF34F8FFEE700BFB0290020143800085A
:10260000CD2300081C000020B4290020D42900207C
:10261000002A0020024A136801331360704700BF8C
:102620007C2900202E4B1B68002B53D170B52D4BFD
:102630001C6801341C60C4B92B4B1B681B6843B178
:102640004FF0500383F31188BFF36F8FBFF34F8FA9
:10265000FEE7254A1168254B186810601960244A66
:10266000136801331360FFF79BFD224B1B68A342E5
:1026700018D9002070BD1F4B4FF0FF321A60F8E7E9
:102680001C4A1360F5E7EB6A01229A401A49086870
:1026900002430A6003EB83039A0031461748104453
:1026A000FFF724FD104B1B681B68002BE3D00E4B7B
:1026B0001B68DB68DD686B689C42E1D32E1D3046E9
:1026C000FFF73AFDAB6A002BDDD005F11800FFF7EC
:1026D00033FDD8E70A4A13680133136000207047BE
:1026E0007C290020002A0020082900200C29002035
:1026F000B8290020B42900208429002010290020B6
:10270000BC29002038B52B4B1B6843B94FF0500350
:1027100083F31188BFF36F8FBFF34F8FFEE7FFF78F
:1027200089FB244B1A68013A1A601B6813B9224BC3
:102730001B681BB9FFF7A0FB002038BD00241F4B0E
:102740001B681BB31D4BDB68DC6804F11800FFF746
:10275000F3FC251D2846FFF7EFFCE36A01229A40AF
:102760001749086802430A6003EB83039A0029466D
:1027700014481044FFF7BAFCE26A134B1B68DB6A8B
:102780009A42DCD3114B01221A60D8E70CB1FFF753
:1027900007FD0F4B1C6854B1FFF744FF10B10B4B02
:1027A00001221A60013CF7D1094B00221A60074B45
:1027B0001B68BFE77C29002074290020C029002065
:1027C000842900201029002004290020042A002048
:1027D000BC29002010B5A8B104460F4B1B6843B1BB
:1027E0004FF0500383F31188BFF36F8FBFF34F8F08
:1027F000FEE7FFF70FFF00212046FFF7F5FDFFF78B
:1028000081FF38B9054B4FF080521A60BFF34F8FEC
:10281000BFF36F8F10BD00BF7C29002004ED00E0E6
:10282000204B1B681BB1204B01221A6070471E4BC6
:1028300000221A601D4B1B68B3FA83F3DBB2C3F1AD
:102840001F0303EB83018A0019498A5842B94FF0EC
:10285000500383F31188BFF36F8FBFF34F8FFEE7F1
:1028600010B413489A00D418A10001444C6864685D
:102870004C601A4491000831084484420BD003EBA9
:1028800083039A000A4B13445B68DA68094B1A60A9
:102890005DF8044B704761680548142202FB03028F
:1028A0005160ECE77C290020042A002084290020C4
:1028B000102900200429002038B50446FFF7BAFA91
:1028C00054B3251D2846FFF737FC70B9E26A02EBC6
:1028D00082018B002E49CB583BB9012303FA02F247
:1028E0002C490B6823EA02030B60A36A1BB104F1B5
:1028F0001800FFF721FC29462748FFF7F7FB0023C4
:10290000002B0CDDFFF7B8FA244B1B68A3B9244B4E
:102910001B68A34217D038BD214B1C68D1E7E218D1
:1029200092F85420D2B2012A01D00133E8E7E2182C
:10293000002182F85410F8E7FFF77CFAFFF730FC2B
:10294000FFF79AFAE3E7154B1B68A3B1154B1B6819
:1029500043B14FF0500383F31188BFF36F8FBFF380
:102960004F8FFEE7104B4FF080521A60BFF34F8F2E
:10297000BFF36F8FCFE7084B1A680C4B1B689A4266
:1029800003D1074B00221A60C5E7FFF749FFC2E7F2
:102990001029002084290020D8290020D4290020D3
:1029A000042900207C29002004ED00E07429002087
:1029B00053B94AB9002908BF00281CBF4FF0FF31A6
:1029C0004FF0FF3000F072B9ADF1080C6DE904CEA4
:1029D00000F006F8DDF804E0DDE9022304B07047FA
:1029E0002DE9F047089E04468846002B4BD18A42C9
:1029F000154667D9B2FA82F24AB1C2F1200701FA4C
:102A000002F320FA07F7954047EA030894404FEA9B
:102A1000154E230CB8FBFEF71FFA85FC0EFB17883A
:102A200043EA084307FB0CF1994209D9EB1807F177
:102A3000FF3080F01B81994240F21881023F2B4405
:102A40005B1AA4B2B3FBFEF00EFB103344EA03445E
:102A500000FB0CFCA44509D92C1900F1FF3380F0D0
:102A60000781A44540F2048102382C4440EA074023
:102A7000A4EB0C0400271EB1D4400023C6E9004398
:102A80003946BDE8F0878B4209D9002E00F0EB8073
:102A90000027C6E9000138463946BDE8F087B3FA99
:102AA00083F7002F47D18B4202D3824200F2FA8093
:102AB000841A61EB030301209846002EE0D0C6E99A
:102AC0000048DDE702B9FFDEB2FA82F2002A40F0E8
:102AD0008F80491B4FEA154E1FFA85F80127B1FB7D
:102AE000FEFC230C0EFB1C1143EA014308FB0CF116
:102AF000994207D9EB180CF1FF3002D2994200F24B
:102B0000CD808446591AA3B2B1FBFEF00EFB10141F
:102B100043EA044408FB00F8A04507D92C1900F14A
:102B2000FF3302D2A04500F2B6801846A4EB080499
:102B300040EA0C409FE7C7F1200CBB4022FA0CFE94
:102B40004EEA030E01FA07F420FA0CF521FA0CF311
:102B50004FEA1E482543B3FBF8F92C0C08FB193348
:102B60001FFA8EFA44EA034309FB0AF49C4202FA74
:102B700007F200FA07F10BD91EEB030309F1FF304E
:102B800080F087809C4240F28480A9F1020973445E
:102B90001B1BADB2B3FBF8F008FB103345EA03444E
:102BA00000FB0AFAA24508D91EEB040400F1FF332A
:102BB0006BD2A24569D90238744440EA0940A0FBAF
:102BC0000289A4EB0A044C45C2464B4654D351D06B
:102BD000002E69D0B1EB0A0564EB030404FA0CFC87
:102BE000FD40FC404CEA0505C6E90054002747E7D4
:102BF000C2F1200320FA03F7954001FA02F021FA0E
:102C000003F34FEA154E3843010CB3FBFEF71FFAEE
:102C100085F80EFB173341EA034107FB08F38B42AB
:102C200004FA02F407D9691807F1FF3C2FD28B424E
:102C30002DD9023F2944CB1A81B2B3FBFEF00EFB23
:102C4000103341EA034100FB08F38B4207D96918AE
:102C500000F1FF3C17D28B4215D902382944C91A1A
:102C600040EA07473BE73746304609E70746E7E6CD
:102C70001846FBE64145ABD2B8EB020A69EB0E02FF
:102C800001381346A4E76046E9E7184695E767462A
:102C9000D1E781467CE702382C4447E7ACF1020CCF
:102CA0002B442FE7384608E73746E9E6704700BF70
:102CB000014B1868704700BF2000002010B5431E6C
:102CC0000A44914200D110BD11F8014B03F8014FA5
:102CD000F7E702440346934200D1704703F8011B13
:102CE000F9E7034613F8012B002AFBD1181A013823
:102CF000704730B5141E05469BB0184605DA8B2385
:102D00002B604FF0FF301BB030BD4FF40273ADF8B5
:102D10000C3014BF04F1FF332346029305934FF6A2
:102D2000FF7300910491ADF80E3002461E9B694678
:102D3000284600F073F8431CBCBF8B232B60002C8B
:102D4000E1D0009B00221A70DDE7000007B5009378
:102D500013460A46014603480068FFF7CAFF03B05E
:102D60005DF804FB200000202DE9F0478E689E42AC
:102D700082460C469046994637D88A8912F4906F5D
:102D800031D0256809696F1A6569022305EB45058D
:102D900095FBF3F509F101033B449D4238BF1D4605
:102DA000530530D5294600F073FB064650B90C2375
:102DB000CAF80030A38943F04003A3814FF0FF30ED
:102DC000BDE8F0873A462169FFF778FFA38923F42D
:102DD000906343F08003A381266165613E44ED1B4F
:102DE0002660A5604E464E4500D94E4632464146C5
:102DF000206800F0E5FAA3689B1BA36023681E44CB
:102E000026600020DCE72A4600F09CFB06460028EE
:102E1000E2D12169504600F0EDFAC8E72DE9F04F04
:102E20009DB0804603938B891D060C4616460FD530
:102E30000B696BB9402100F02BFB2060206128B9A1
:102E40000C23C8F800304FF0FF30C7E04023636127
:102E50000023099320238DF8293030238DF82A3060
:102E60004FF0010B37463D4615F8013B0BB1252BC2
:102E70003ED1B7EB060A0BD05346324621464046B8
:102E8000FFF772FF013000F0A480099B53440993BF
:102E90003B78002B00F09D8000234FF0FF32CDE9FE
:102EA0000523049307938DF853301A932F46052278
:102EB00017F8011B4F4800F033FA049BD0B9D9062C
:102EC00044BF20228DF853201A0744BF2B228DF8CF
:102ED00053202A782A2A15D0079A2F4600200A253F
:102EE000394611F8013B303B092B4DD9B8B10FE001
:102EF0002F46B8E73F4A801A0BFA00F018430490B7
:102F00003D46D3E7039A111D12680391002A01DBA5
:102F1000079204E0524243F00203079204933B7885
:102F20002E2B0CD17B782A2B33D1039B1A1D1B68C7
:102F30000392002BB8BF4FF0FF33023705932E4D9D
:102F400039780322284600F0EBF938B14023401BC2
:102F500003FA00F0049B03430137049339782748B0
:102F60008DF8281006227E1C00F0DAF9002838D0EF
:102F7000234B13BB039B073323F00703083303934F
:102F8000099B4B4409936DE705FB023201200F4674
:102F9000A6E700230137059319460A25384610F89D
:102FA000012B303A092A03D9002BC8D00591C6E776
:102FB00005FB012101230746F0E703AB00932246FE
:102FC000104B04A94046AFF30080B0F1FF3F8146AB
:102FD000D6D1A3895B063FF536AF09981DB0BDE891
:102FE000F08F03AB00932246064B04A9404600F045
:102FF00081F8EAE71C380008223800082638000863
:1030000000000000692D00082DE9F04791461F4699
:103010008A680B69DDF820809342B8BF1346C9F86F
:10302000003091F8432006460C4612B10133C9F82E
:1030300000302368990642BFD9F800300233C9F83E
:103040000030256815F0060507D104F1190AE36878
:10305000D9F800209B1AAB4228DC94F84330226850
:10306000003318BF012392062DD404F143023946E0
:103070003046C047013020D02368E568D9F80020E9
:1030800003F00603042B08BFAD1AA36822690CBF26
:1030900025EAE57500259342C4BF9B1AED184FF051
:1030A00000091A344D451AD1002008E00123524688
:1030B00039463046C047013003D14FF0FF30BDE8FC
:1030C000F0870135C3E7E1185A1C302081F843002E
:1030D000224494F8451082F843100233C5E70123D7
:1030E000224639463046C0470130E6D009F1010991
:1030F000D8E700002DE9F04301F1430C0C46097EAE
:1031000085B06E291746064698460C9A00F0B380A3
:1031100022D8632936D00AD8002900F0B98058296E
:1031200000F0838004F1420584F8421032E0642903
:1031300001D06929F6D120681368050603F104015E
:103140002AD51B681160002B03DA2D225B4284F81C
:1031500043206F480A2239E0732900F09D8008D887
:103160006F2920D07029DDD1236843F0200323602C
:1031700003E0752917D07829D4D1782384F8453015
:10318000644855E01368191D1B68116004F142057D
:1031900084F8423001238CE01B68116010F0400F6E
:1031A00018BF1BB2CFE713682568181D10602806EA
:1031B00001D51B6802E06806FBD51B8854486F29BF
:1031C00014BF0A220822002184F843106568A56014
:1031D000002DC0F29580216821F004012160002BB0
:1031E0003DD1002D40F08E806546082A0BD1236822
:1031F000DB0708D5236962689A42DEBF302305F8F1
:10320000013C05F1FF35ACEB05032361CDF80080EF
:103210003B4603AA21463046FFF7F6FE01304DD16A
:103220004FF0FF3005B0BDE8F083394884F8451011
:10323000136821681D1D1B6815600A060BD5CA0797
:1032400044BF41F0200121601BB9226822F0200216
:1032500022601022B7E74D0648BF9BB2EFE76546F4
:10326000B3FBF2F102FB1133C35C05F8013D0B46E1
:103270000029F5D1B9E7136825686169181D106048
:1032800028061B6801D5196002E06A06FBD5198083
:10329000002323616546B9E71368191D11601D6895
:1032A00062680021284600F03BF808B1401B6060CE
:1032B00063682361002384F84330A7E723692A4623
:1032C00039463046C0470130AAD023689B0713D443
:1032D000E068039B9842B8BF1846A3E701234A461B
:1032E00039463046C04701309AD00135E368039A29
:1032F0009B1AAB42F2DCEBE7002504F11909F5E774
:10330000002BACD1037884F8423004F142056CE71D
:103310002D3800083E3800080000000000000000C2
:1033200001F0FF01102A2BDB10F0070F08D010F876
:10333000013B013A8B422DD010F0070F42B3F6D17A
:10334000F0B441EA012141EA014122F007047FF093
:1033500000070023F0E80256083C85EA010586EAEA
:10336000010685FA47F5A3FA87F586FA47F6A5FA26
:1033700087F68EB9EED1F0BC01F0FF0102F0070232
:1033800032B110F8013B013A83EA010313B1F8D1DD
:103390000020704701387047002D06BF35460338BE
:1033A000073815F0010F07D1013015F4807F02BFF7
:1033B000013015F4C03F0130F0BC0138704700BF48
:1033C000884210B501EB020307D8421E99420AD089
:1033D00011F8014B02F8014FF8E78342F5D9811843
:1033E000D21AD34200D110BD13F8014D01F8014D9E
:1033F000F7E7000038B50546002945D051F8043CF0
:103400000C1F002BB8BFE41800F0D2F81F4A136855
:10341000104633B9636014602846BDE8384000F0B8
:10342000C8B8A3420CD921686218934204BF1A6835
:103430005B68636004BF521822600460ECE71346C7
:103440005A680AB1A242FAD919685818A0420BD199
:1034500020680144581882421960DDD11068526812
:103460005A6001441960D7E702D90C232B60D3E7D7
:10347000206821188A4204BF11685268626004BF44
:10348000091821605C60C7E738BD00BF082A00202A
:1034900070B5CD1C25F0030508350C2D38BF0C2563
:1034A000002D064601DBA94203D90C23336000201E
:1034B00070BD00F07DF8214A1468214691B9204C76
:1034C00023681BB9304600F063F820602946304677
:1034D00000F05EF8431C24D10C233360304600F02A
:1034E00068F8E4E70B685B1B18D40B2B0FD90B6053
:1034F000CD50CC18304600F05CF804F10B00231DD1
:1035000020F00700C31AD3D05A42E250D0E78C42D1
:103510004B6816BF636013600C46EBE70C464968C6
:10352000CCE7C41C24F00304A04205D0211A304685
:1035300000F02EF80130CFD02560DBE7082A00200C
:103540000C2A0020F8B5074614460E4621B911464C
:10355000BDE8F840FFF79CBF22B9FFF74BFF2546B7
:103560002846F8BD00F026F8A0420FD22146384682
:10357000FFF78EFF05460028F2D031462246FFF7BE
:103580009DFB31463846FFF735FFE9E73546E7E76B
:1035900038B5064C0023054608462360FDF724FC99
:1035A000431C02D1236803B12B6038BD142A0020CC
:1035B0007047704751F8043C181F002BBCBF0B58D4
:1035C000C01870472E2E2F73797374656D2F737228
:1035D000632F73746D333266342D68616C2F73748E
:1035E0006D3332663478785F68616C5F636F7274D4
:1035F00065782E63000000002E2E2F73797374659A
:103600006D2F7372632F73746D333266342D68615E
:103610006C2F73746D3332663478785F68616C5FD9
:103620007263632E6300000061626F727428292C3C
:103630002065786974696E672E2E2E00617373653C
:1036400072745F706172616D2829206661696C65B2
:10365000643A2066696C6520222573222C206C69EF
:103660006E652025640A0000537461636B206672E6
:10367000616D653A0A000000205230203D2020256F
:103680003038580A00000000205231203D2020250B
:103690003038580A00000000205232203D202025FA
:1036A0003038580A00000000205233203D202025E9
:1036B0003038580A0000000020523132203D2025C9
:1036C0003038580A00000000204C52203D202025B0
:1036D0003038580A00000000205043203D202025AB
:1036E0003038580A0000000020505352203D202559
:1036F0003038580A000000004653522F4641523AD3
:103700000A0000002043465352203D202025303837
:10371000580A00002048465352203D2020253038CA
:10372000580A00002044465352203D2020253038BE
:10373000580A00002041465352203D2020253038B1
:10374000580A0000204D4D464152203D202530387A
:10375000580A00002042464152203D2020253038A2
:10376000580A00004D6973630A000000204C522F74
:103770004558435F52455455524E3D2025303858E8
:103780000A0000005B486172644661756C745D0AF2
:10379000000000005B4275734661756C745D0A0041
:1037A0005B55736167654661756C745D0A00000066
:1037B00000000000000000000102030406070809E1
:1037C0004154264B300D0A0041542B534244495872
:1037D0000D0A000041542B53424452540D0A00007C
:1037E00041542F722F6E000041542B5342445754C2
:1037F0003D0000002F722F6E00000000414C45522A
:10380000540000005461736B310000005461736B0D
:103810003200000049444C4500000000232D302BAD
:103820002000686C4C0065666745464700303132C1
:103830003334353637383941424344454600303118
:0F38400032333435363738396162636465660078
:0838500090F1FF7F0100000070
:103858007856341201FFFFFF10000000900000208E
:10386800000000000024F400AAAAAAAA040000008C
:1038780024000020000000000000000000000000FC
:103888000000000000000000000000000000000030
:103898000000000000000000000000000000000020
:1038A8000000000000000000000000000000000010
:1038B8000000000000000000000000000000000000
:1038C80000000000000000000000000000000000F0
:0838D800000000003254769854
:040000050800019559
:00000001FF
